:020000040800F2
:1000000058040020791600085516000857160008F5
:10001000591600085B1600085D1600080000000075
:100020000000000000000000000000005F16000853
:10003000611600080000000063160008651600083D
:1000400095160008991600089D160008A1160008CC
:10005000A5160008A9160008AD160008B11600087C
:10006000B5160008B9160008BD160008C11600082C
:10007000C5160008C9160008CD160008D1160008DC
:10008000D5160008D9160008DD160008E11600088C
:10009000E5160008E9160008ED160008F11600083C
:1000A000F5160008F9160008FD16000801170008EB
:1000B00005170008091700080D1700081117000898
:1000C00015170008191700081D1700082117000848
:1000D00025170008291700082D17000831170008F8
:1000E00035170008391700083D17000841170008A8
:1000F00045170008491700084D1700085117000858
:1001000055170008591700085D1700086117000807
:1001100065170008691700086D17000871170008B7
:1001200075170008791700087D1700088117000867
:100130008517000800000000000000008917000873
:100140008D170008911700089517000899170008E7
:100150009D170008A1170008A5170008A917000897
:10016000AD170008B1170008B5170008B917000847
:10017000BD170008C11700080000000000000000C3
:10018000C5170008C917000870B5044600250CB94A
:10019000012070BD04F13006306920B9204600F01E
:1001A00069FA756135733069C10600F19280306972
:1001B000DFF8401420F4885040F0020030610868F5
:1001C00020F4403008600A68606802430A602068D2
:1001D000416821F48071416020684168226941EAE8
:1001E000022141602068416821F04071416021682E
:1001F0004A68A06802434A602068816821F400616F
:10020000816021688A68E06802438A602068A16A88
:10021000DFF8E4239142816821F0706181600CD0A5
:1002200021688A68A06A02438A6000F05BF821684E
:100230008A68E06A02438A6001E000F053F82068AF
:10024000816821F0020100F049F8227E41EA420172
:10025000816094F820002168002848680FD040F49D
:10026000006048602068416821F460414160206876
:100270004168626A521E41EA4231416002E020F464
:10028000006048602068C16A21F47001C162206882
:10029000C16AE269521E41EA0251C1622068816866
:1002A00021F4007100F01AF8327841EA422100F09E
:1002B00015F821F4806100F011F8626941EA8221A9
:1002C00081607561316921F0020141F00101316104
:1002D00000E0012500203073284670BD8160206851
:1002E000816870472068816821F0405181607047C3
:1002F00038B500F0ADF801D1022032BD00F0BCF8F5
:1003000030D500F08DF846BF906820F00600002040
:1003100000F07EF8DFF8DC2200F0A7F818D1884260
:100320000FD0DFF8D812884204D1126812F01F0FE4
:1003300018D106E0DFF8C812884213D100F063F844
:1003400010D2816811F0405F0CD100F089F809E00B
:10035000884202BFDFF8AC02016811F0405F01D1B2
:1003600000F071F8002032BDF8B50C46064606F1E3
:100370003C05306881684A050AD58068C10507D503
:10038000686840F020006860002129700120F2BDFB
:1003900000F0A8F90746306801688A0710D414F104
:1003A000010FF8D024B100F09DF9C01B8442F2D2B5
:1003B000686840F004006860002129700320F2BDE5
:1003C0006FF012020260686840F400706860316883
:1003D000886810F0405F04BF307E002811D1C86AE1
:1003E00010F4700F02D0886841050AD4686820F4C0
:1003F000807068606868C10403D4686840F00100D8
:1004000068600020F2BD126802F01F02102A7047D7
:100410009060002313706FF022000A68106070472C
:100420005568DFF8E401054045F48075556058686B
:10043000430505D5506820F4005040F480505060CA
:100440005068C3047047016841F080410160704703
:100450000146002001F13C0200901378012B704707
:10046000816841F080418160704708681368DFF857
:100470009C1113F01F0F70470120107008688368EB
:10048000DC0714D48368DFF8884143F001038360FC
:10049000DFF880010368B3FBF4F404EB4404009438
:1004A00002E00098401E009000980028F9D10B68E7
:1004B0009868C40770470068C06C704778B50246FA
:1004C0000020009092F83C30012B01D1022072BD37
:1004D000012082F83C0007240B6810680A2B12D315
:1004E0000A3BC56803EB43039C4025EA0404C4604F
:1004F000C3680D688C68A5F10A0606EB4606B44091
:100500002343C3600FE0056903EB430304FA03F3DD
:1005100025EA0303036103690D688C6805EB450553
:10052000AC40234303611F244B68072B0CD25B1E96
:10053000456B00F050F84463436B4D680C886E1EA9
:1005400000F044F843631BE00D2B0CD2DB1F056B5E
:1005500000F041F80463036B4D680C88EE1F00F057
:1005600035F803630CE00D3BC56A00F034F8C46253
:10057000C36A4D680C88A5F10D0600F027F8C36228
:10058000224B98421DD10C681A48122C03D10368E3
:1005900043F4800303600B68102B18BF112B10D19C
:1005A000036843F4000303600868102809D119495F
:1005B000174C0B68B3FBF4F40A204443009400F09A
:1005C00010F8002182F83C10002072BD06EB860670
:1005D000B4402343704703EB83039C4025EA0404A3
:1005E000704702E00098401E009000980028F9D162
:1005F00070470000042301400100000F002101406A
:100600000022014008200140FEF9FFFF00200140C8
:1006100040420F000C0000201FB510220021684648
:1006200000F066F82A4C2B4820604FF480312A48AD
:10063000A06200220120E06160616160A26022612D
:10064000227684F82020E262E26084F8302020469E
:10065000FFF79AFD08B100F0FFF80020012100909B
:100660000191029069462046FFF728FF08B100F08B
:10067000F3F81FBD10B586B004461422002101A86E
:1006800000F036F82168134881421FD10022134838
:100690000092416941F480714161416901F48071C6
:1006A0000091009900920121036843F00103036067
:1006B0000322006800F001000090009808480191B2
:1006C00002920021039101A900F0CCF806B010BD00
:1006D00010000020002001400100000F30380240CF
:1006E0000000024001484068704700BF0000002041
:1006F00010B5044610460A460146204600F0A4F90B
:10070000204610BD2DE9F84300F0D2F900F051F871
:1007100000F0E8F9FFF780FF00F06EFBDFF82841FA
:100720004EA5DFF828814046FFF7E2FD0A2140464A
:10073000FFF71AFE4046FFF7BEFE87B200210020F9
:1007400000F073FB284600F07FFB4FF47A7097FBB4
:10075000F0F00A210A2600F024F8642097FBF0F05C
:100760000A2100F01EF897FBF6F999FBF6F006FB5C
:1007700010903030C0B200F0FCFA06FB197630362B
:10078000F0B200F0F6FAB7F5FA7FA7BF0022012118
:1007900001220121204600F03CF9642000F062FBB8
:1007A000C1E790FBF1F106FB11003030C0B200F060
:1007B000E0BA80B592B03022002106A8FFF798FF7A
:1007C0001422002101A8FFF793FF002000904FF4AE
:1007D00080331F48016841F08051016000210068AA
:1007E00000F08050009000981A480091026842F48E
:1007F000804202600122006800F48040009006A858
:100800000099069202214FF480020C910D9204216E
:10081000A8220E910F9202210422079310911192A7
:1008200000F034FB02210291002203920F204FF4CA
:10083000A051019004914FF480520592052101A826
:1008400000F0ACFC13B000BD000802401000002016
:10085000403802400070004070470000436473203D
:100860003A2000002DE9F84F0D4600266B496C4AEE
:100870000F23044601202F68B04000EA0708804596
:1008800040F0C1804FEA460C032707FA0CF76FEAE5
:10089000070E6F68012F18BF022F03D0112F18BF4A
:1008A000122F12D1A768D5F80C900EEA070709FAA3
:1008B0000CF949EA0707A760676827EA00006F6834
:1008C000C7F30017B74038436060E068AF680EEACE
:1008D000000007FA0CF73843E060B0006F68022FA1
:1008E00018BF122F12D1F70804EB870700F01C097C
:1008F000D7F820A003FA09FB2AEA0B0AD5F810B0B2
:100900000BFA09F949EA0A09C7F8209027680EEAA4
:10091000070E2F7907F0030707FA0CF747EA0E07CF
:1009200027606F68FF006ED5002700974FEA960C8E
:10093000176847F48047176000F00C00176807F449
:100940008047009703FA00FE009F364F57F82C703F
:1009500027EA0E0E344FBC4208BF002722D0334F87
:10096000BC4208BF01271DD0314FBC4208BF02273F
:1009700018D0304FBC4208BF032713D02E4FBC42C3
:1009800008BF04270ED02D4FBC4208BF052709D051
:100990002B4FBC4208BF062704D02A4FBC420CBFD5
:1009A0000727082707FA00F01E4F40EA0E0047F815
:1009B0002C006FEA08000F6800EA070C6F68FF035D
:1009C00048BF48EA0C0CC1F800C04F6800EA070CA9
:1009D0006F68BF0348BF48EA0C0CC1F804C08F68B9
:1009E00000EA070C6F68FF0248BF48EA0C0CC1F828
:1009F00008C0CF6800EA070C6868800248BF48EA70
:100A00000C0CC1F80CC0761C0F2E7FF633AFBDE87E
:100A1000F18F02B90904816170470000003C014078
:100A200044380240083801400000024000040240FF
:100A300000080240000C0240001002400014024076
:100A400000180240001C024062F30F2262F31F42B2
:100A5000401810F0030308D0C91A1FD3DB0748BFA2
:100A600000F8012D28BF20F8022D130030B41446E1
:100A70001546103928BF20E93C00FAD8490728BF9D
:100A800020E90C0048BF40F8042D890028BF20F859
:100A9000022D48BF00F8012D30BC7047C91818BF9F
:100AA00000F8012DCB0728BF00F8012D704700008A
:100AB00080B50B48016841F400710160026842F49E
:100AC00080620260016841F480710160032000F0DF
:100AD00032FC002000F078FC00F096FC002002BD03
:100AE000003C024038B586B01422002101A8FFF76F
:100AF000FFFD00212148224D224C0091026842F066
:100B0000800202600022016801F0800100910099DA
:100B10000092036843F004030360016801F00401DC
:100B2000009100990092036843F00103036001689B
:100B300001F00101009100990092F121036843F056
:100B400002030360006800F002000090009828464D
:100B5000FFF75FFF002207212046FFF75AFFF12130
:100B600000F012F82846FFF77DFE072100F00CF890
:100B70002046FFF777FE07B030BD00003038024056
:100B8000000802400004024001910122002103916B
:100B90000491029201A970473C2000BF00BF00BF32
:100BA00000BF00BF00BF00BF00BF00BF00BF00BF4D
:100BB00000BF00BF00BF00BF00BF00BF00BF00BF3D
:100BC00000BF00BF00BF00BF00BF00BF00BF00BF2D
:100BD00000BF00BF00BF00BF00BF00BF00BF00BF1D
:100BE00000BF00BF00BF00BF00BF00BF00BF00BF0D
:100BF00000BF00BF00BF00BF00BF00BF00BF00BFFD
:100C000000BF00BF00BF00BF00BF00BF00BF00BFEC
:100C100000BF00BF00BF00BF00BF00BF00BF00BFDC
:100C200000BF00BF00BF00BF00BF00BF00BF00BFCC
:100C300000BF00BF00BF00BF00BF00BF00BF00BFBC
:100C400000BF00BF00BF00BF00BF00BF00BF00BFAC
:100C500000BF00BF00BF00BF00BF00BF00BF00BF9C
:100C600000BF00BF00BF00BF00BF00BF00BF00BF8C
:100C700000BF00BF00BF00BF00BF00BF00BF00BF7C
:100C800000BF00BF00BF00BF00BF00BF00BF00BF6C
:100C900000BF00BF00BF00BF00BF00BF00BF00BF5C
:100CA00000BF00BF00BF00BF00BF00BF00BF00BF4C
:100CB00000BF00BF00BF00BF00BF00BF00BF00BF3C
:100CC00000BF00BF00BF00BF00BF00BF00BF00BF2C
:100CD00000BF00BF00BF00BF00BF00BF401E002814
:100CE0007FF45BAF704781B0002343F6E46200936A
:100CF000504301E00098401E009000980028F9D170
:100D000001B0704738B586B00020304C304D0090AF
:100D10000722216841F0020121600123206800F0D0
:100D2000020000902846009901920021039104914D
:100D3000029301A9FFF796FD0022072100F059F860
:100D400000200090216841F002012160F02120681C
:100D500000F00200009000981E48019101A9FFF7E1
:100D600081FD07B030BD70B50446194D0022032146
:100D700008E070B50446164D0122022100F039F852
:100D80000022012100F035F800F031F8114E00F09A
:100D900023F800F026F80120FFF7FEFE002200F005
:100DA00027F80120FFF7F8FE00F021F800F014F812
:100DB000240100F016F80120FFF7EEFE002200F0FB
:100DC00017F8BDE8704002208DE70000303802407F
:100DD00000040240000802400022F0213046FFF7E4
:100DE00018BE012204F0F0013046FFF712BE0122C6
:100DF00004212846FFF70DBE80B5FFF783FF2820AA
:100E0000FFF7B1FF0120FFF7AEFF6420FFF76BFF94
:100E10000620FFF7A8FF0C20FFF7A5FF0220FFF731
:100E2000A2FFBDE8024080209DE7012905D007D33D
:100E3000032904D038BF143002E0403000E05430C1
:100E400040F08000C0B28EE738B5040008D000251D
:100E500002E0FFF78EFF6D1CE8B2205C0028F8D19D
:100E600031BD000038B50446FFF73CFC14F1010F1A
:100E7000054602D0044801786418FFF733FC401B94
:100E8000A042FAD331BD00BF000000202DE9F84395
:100E9000040016D02078DFF8F462C10713D5B068DB
:100EA00000F00C00042807D0B06800F00C000828FF
:100EB0003DD1706841023AD53068810303D560683E
:100EC000002800F05E812078B14F810719D5B06805
:100ED00010F00C0F07D0B06800F00C0008285BD1B0
:100EE0007068410258D43068810703D5E068012852
:100EF00040F047813168206921F0F80141EAC001E2
:100F000031602178080779D56069A249002868D046
:100F100001220A60FFF7E6FB0546706F81076DD47A
:100F2000FFF7E0FB401B0228F7D903202CE16068A3
:100F3000B0F5803F04D1306840F48030306011E07B
:100F4000B0F5A02F306806D140F4802030603168C1
:100F500041F4803105E020F480303060316821F4C4
:100F600080213160606858B1FFF7BCFB05463068EE
:100F70008103A8D4FFF7B6FB401B6528F7D3D4E75D
:100F8000FFF7B0FB0546306881039CD5FFF7AAFB4D
:100F9000401B6528F7D3C8E7E068A8B10121396094
:100FA000FFF7A0FB05463068810705D4FFF79AFBE1
:100FB000401B0228F7D9B8E73068216920F0F80013
:100FC00040EAC10030609CE73860FFF78BFB0546C4
:100FD0003168880795D5FFF785FB401B0228F7D9B4
:100FE000A3E70860FFF77EFB0546706F810705D514
:100FF000FFF778FB401B0228F7D996E720784107D6
:101000005FD5306C0025C1000AD400950125316CF4
:1010100041F080513164306C00F0805000900098B5
:10102000DFF87481D8F80000C10513D4D8F80000A7
:1010300040F48070C8F80000FFF754FB8146D8F8F0
:101040000000C10506D4FFF74DFBA0EB0900022804
:10105000F5D96AE7A068012805D00528306F06D1C8
:1010600040F004003067306F40F0010005E04008B8
:1010700040003067306F20F00400306741F289385B
:10108000A06860B1FFF72EFB8146306F810713D453
:10109000FFF728FBA0EB09004045F6D345E7FFF733
:1010A00021FB8146306F810706D5FFF71BFBA0EBC4
:1010B00009004045F6D338E71DB1306C20F0805070
:1010C0003064A06900285ED0B16801F00C010829E5
:1010D0003AD002282AD100203866FFF703FB0546E4
:1010E0003068810105D5FFF7FDFA401B0228F7D9CA
:1010F0001BE7E069216A626A0843A16A490840EA7D
:101100008210491E40EA0140E16A40EA01607060D5
:1011100001203866FFF7E6FA04463068810132D4D0
:10112000FFF7E0FA001B0228F7D9FEE60020386638
:10113000FFF7D8FA04463068810124D5FFF7D2FAC8
:10114000001B0228F7D9F0E601281AD07068E2697E
:1011500000F48001914202BF00F03F01226A9142F7
:101160000FD147F6C071626A0140914202BF00F49C
:101170004031A26A914202BF00F07060E16A884289
:1011800001D0012000E00020BDE8F28300380240D9
:1011900000004742800E4742007000402DE9F041B8
:1011A00004000F4654D0404E306800F00F00B842A3
:1011B00002D200F073F84BD120683C4D810712D564
:1011C000400703D5A96841F4E051A96020780107E0
:1011D00003D5A86840F46040A860A968A06821F021
:1011E000F0010143A9602178C80729D5606801286A
:1011F00002D129688A0305E0022818BF032803D119
:1012000029688A0103D423E029688A0720D5A968C0
:10121000890840EA8100A860FFF764FA8046A86860
:10122000616800F00C00B0EB810F09D0FFF75AFAAB
:10123000A0EB080041F289318842F0D303202BE073
:10124000306800F00F00874204D200F027F801D088
:10125000012021E02078410705D5AA68E06822F442
:10126000E0520243AA602178080706D5A9682069E0
:1012700021F4604141EAC001A96000F01FF8AA68AA
:101280000B490C4BC2F30312895CC84018600A4832
:10129000006800F099F80020BDE8F08137703168EF
:1012A00001F00F01B9427047003C02400038024093
:1012B000A01500080C0000200800002030B5144CD8
:1012C000606800F00C00042802D0082802D01DE05D
:1012D000104830BD226820680023410202F03F021E
:1012E00004D525680B49C5F3881003E020680A4936
:1012F000C0F38810A1FB000100F0A2F82168C1F33F
:101300000141491C4900B0FBF1F030BD024830BD3D
:101310000438024000127A000024F400090102009F
:1013200002D4244881547047234B02F00F021A4420
:1013300002F8041C7047214B19684FF6FF020002A7
:10134000114000F4E06008431D49084318607047ED
:1013500070B51A4B1C68C4F302230124C3F10705BE
:10136000052D2EBF0F2504FA05F56D1E1E1D072E37
:1013700034BF0023DB1E2940994004FA03F3BDE883
:1013800070405B1E1A401143C8E710B5401EB0F113
:10139000807F01D3012010BD0A4C60600F214FF007
:1013A000FF30FFF7BBFF0021A16007202060002075
:1013B00010BD000000E400E018ED00E00CED00E0DE
:1013C0000000FA0510E000E038B50D4D0D4B2A780D
:1013D00004464FF47A711868B1FBF2F2B0FBF2F0F8
:1013E000FFF7D3FF50B9102C08D2002221464FF04E
:1013F000FF30FFF7ADFFAC60002032BD012032BDF1
:10140000000000200C00002081B00020009000228D
:101410000A48416841F480414160416801F48041DB
:10142000009100990092036843F0805303600068C4
:1014300000F080500090009801B0704740380240A2
:10144000D3BBD9B1B2F5803F5BD2022A1ED98C46FC
:10145000B1FBF2F102FB11C31B0443EA1043B3FBDF
:10146000F2FC02FB1C3380B240EA0343B3FBF2F010
:1014700002FB103240EA0C4000237047022A05D9D3
:101480008446B0FBF2F002FB10C270474AB105D1AE
:1014900000F0010249085FEA300070470022002393
:1014A000704700F051B80B00020000210020704787
:1014B000F7D3002200237047904271EB030CF2D364
:1014C00070B5B1FA81F4B3FA83F52C1BA340C4F1D3
:1014D000200532FA05F63343A2405FF00046E640AD
:1014E00002E05B085FEA3202841A71EB030524BF55
:1014F000204629467641F4D302000B00300000213B
:1015000070BD70B5B1FA81F4B2FA82F5C4F120046D
:101510006419B4F12006DAD3B2405FF00044F4401D
:10152000002502E052085FEA3303C61A71EB020E8F
:1015300024BF3046714664416D41F3D302000B0075
:101540002000290070BD0000704730B50168846834
:101550004218416802EB5103C90703D54C4401E02E
:10156000491C05D19A420AD012F9011B12F8015BFD
:10157000002904F8015BF3D4491EF7D5F2E70C30DB
:1015800030BD00000448054A016841F47001016063
:101590004FF000601060704788ED00E008ED00E05B
:1015A0000000000000000000010203040607080913
:1015B00010B5074979441831064C7C44163404E0D0
:1015C0000A68081D114488470146A142F8D110BDA0
:1015D0002C000000380000004EF68851CEF20001C9
:1015E000086840F470000860BFF34F8FBFF36F8F3F
:1015F0004FF00070E1EE100A704700004FFFFFFF50
:10160000CC0100001A0000000000002000F00DF8DE
:10161000002801D0FFF7CCFFAFF300800020AFF32C
:101620000080FFF76FF800F002F80120704700F02B
:1016300001B800000746384600F002F8FBE700005A
:1016400080B5AFF30080024A11001820ABBEFBE763
:10165000260002007047FEE7FEE7FEE7FEE7704760
:101660007047704700F000B80248416802788A1855
:101670004260704700000020014880470148004751
:101680008515000889160008AFF30080FFF7A4FF56
:10169000FFF7BCFFFFF7FEBFFFF7FEBFFFF7FEBF80
:1016A000FFF7FEBFFFF7FEBFFFF7FEBFFFF7FEBF6E
:1016B000FFF7FEBFFFF7FEBFFFF7FEBFFFF7FEBF5E
:1016C000FFF7FEBFFFF7FEBFFFF7FEBFFFF7FEBF4E
:1016D000FFF7FEBFFFF7FEBFFFF7FEBFFFF7FEBF3E
:1016E000FFF7FEBFFFF7FEBFFFF7FEBFFFF7FEBF2E
:1016F000FFF7FEBFFFF7FEBFFFF7FEBFFFF7FEBF1E
:10170000FFF7FEBFFFF7FEBFFFF7FEBFFFF7FEBF0D
:10171000FFF7FEBFFFF7FEBFFFF7FEBFFFF7FEBFFD
:10172000FFF7FEBFFFF7FEBFFFF7FEBFFFF7FEBFED
:10173000FFF7FEBFFFF7FEBFFFF7FEBFFFF7FEBFDD
:10174000FFF7FEBFFFF7FEBFFFF7FEBFFFF7FEBFCD
:10175000FFF7FEBFFFF7FEBFFFF7FEBFFFF7FEBFBD
:10176000FFF7FEBFFFF7FEBFFFF7FEBFFFF7FEBFAD
:10177000FFF7FEBFFFF7FEBFFFF7FEBFFFF7FEBF9D
:10178000FFF7FEBFFFF7FEBFFFF7FEBFFFF7FEBF8D
:10179000FFF7FEBFFFF7FEBFFFF7FEBFFFF7FEBF7D
:1017A000FFF7FEBFFFF7FEBFFFF7FEBFFFF7FEBF6D
:1017B000FFF7FEBFFFF7FEBFFFF7FEBFFFF7FEBF5D
:1017C000FFF7FEBFFFF7FEBFFFF7FEBF0001F90006
:0917D0000010FC000124F4B70034
:040000050800168950
:00000001FF
