:020000040800F2
:1000000090040020DD170008B9170008BB1700088E
:10001000BD170008BF170008C11700080000000046
:10002000000000000000000000000000C3170008EE
:10003000C517000800000000C7170008C91700080E
:100040001118000815180008191800081D180008D4
:100050002118000825180008291800082D18000884
:100060003118000835180008391800083D18000834
:100070004118000845180008491800084D180008E4
:100080005118000855180008591800085D18000894
:100090006118000865180008691800086D18000844
:1000A0007118000875180008791800087D180008F4
:1000B0008118000885180008891800088D180008A4
:1000C0009118000895180008991800089D18000854
:1000D000A1180008A5180008A9180008AD18000804
:1000E000B1180008B5180008B9180008BD180008B4
:1000F000C1180008C5180008C9180008CD18000864
:10010000D1180008D5180008D9180008DD18000813
:10011000E1180008E5180008E9180008ED180008C3
:10012000F1180008F5180008F9180008FD18000873
:100130000119000800000000000000000519000877
:10014000091900080D1900081119000815190008EF
:10015000191900081D19000821190008251900089F
:10016000291900082D19000831190008351900084F
:10017000391900083D1900080000000000000000C7
:10018000411900084519000838B5040001D10120C3
:1001900032BD00F045F818B900F03EF800F0D9FA89
:1001A000FFE702206870211D206800F016F9012089
:1001B0006870002032BD03D1416C41F400414164BC
:1001C000816801F00701062903D0016841F00101AF
:1001D0000160002010BD38B5040001D1012032BDFE
:1001E00000F01EF818B900F017F800F0F5FAD8E79B
:1001F00010B500F007F800F00AF81CBFDFF828205F
:100200009042D8E704460122206800F02ABA20680C
:10021000DFF8181088427047002129702046704787
:1002200004F13C056878704700040140000001407B
:1002300070B500F063F801D1022070BD00F06BF8DA
:1002400032B1042A17D0082A28D00C2A39D04AE023
:100250003068294600F00CF93068816941F00801E6
:1002600000F048F821F00401816131688A69286949
:1002700002438A6137E03068294600F025F930688A
:10028000816941F4006100F035F821F4806100F0EB
:1002900031F82A6941EA0221816124E03068294667
:1002A00000F042F93068C16941F0080100F01EF821
:1002B00021F00401C1613168CA6928690243CA6139
:1002C00011E03068294600F05EF93068C16941F4F8
:1002D000006100F00BF821F4806100F007F82A6952
:1002E00041EA0221C16100F010F870BDC1613068BF
:1002F000C16970478161306881697047064606F1BF
:100300003C040D46207801287047012060700021D0
:100310002170002070470120207002216170704719
:1003200038B500F04EF801D1022032BD0120207016
:1003300002226270DFF894022A6893680340936097
:100340000868020018BF10282DD0202818BF3028B8
:1003500029D0402823D0502816D0602818D07028E3
:1003600003D0B0F5005F07D021E000F025F8286841
:10037000816841F0770105E000F01EF82868816887
:1003800041F48041816012E000F012F850210BE04E
:10039000CA684968286800F040F9602104E000F06C
:1003A00007F8402100E00146286800F048F90EE017
:1003B000CA684968286821E1CB684A688968286862
:1003C00045E1054605F13C042078012870470120ED
:1003D000607000212170002032BDF0B57C4C0568B2
:1003E0007C4B7D4E7D4FDFF8F8C1A04218BFB0F1C5
:1003F000804F07D0604518BFB84203D0B04218BF45
:1004000098420DD14A6825F070051543A04218BFE7
:10041000B0F1804F17D060451CBFB842B04212D037
:1004200098421CBF6F4A90420DD06F4EB0421CBF25
:100430006E4A904207D06E4EB0421FBF6D4A904246
:100440006D4EB04203D1CA6825F4407515434A6920
:1004500025F0800515430560A0428D68C5620A68D5
:10046000826212BF98420969016301224261F0BDB4
:10047000F0B5026A564F520852000262066A44689A
:1004800085690B688A6825F0730526F002061D430E
:100490001643504BB84218BF984207D1CA6826F09D
:1004A00008061643B84226F0040601D0984205D14A
:1004B0004B698A6924F440741C4314434460856189
:1004C000496841630662F0BDF0B5026A404E22F011
:1004D00010020262B042056A436884690A6824F423
:1004E000E64444EA02248A6825F0200545EA02151C
:1004F000384A18BF904208D1CF6825F0800545EAF8
:100500000715B04225F0400501D0904206D14E6952
:100510008A6923F44063164343EA86034360846197
:10052000496881630562F0BDF0B5026A22F4807209
:100530000262056A4368C4698E680A6825F400751A
:1005400024F0730445EA06251443214E214AB042A3
:1005500018BF904208D1CF6825F4006545EA072509
:10056000B04225F4806501D0904206D14E698A6977
:1005700023F44053164343EA06134360C4614968B9
:10058000C1630562F0BD70B5026A114E22F480525B
:100590000262B042046A4268C3690D6823F4E6430C
:1005A00043EA05238D6824F4005444EA05341CBF53
:1005B000084DA84204D14D6922F4804242EA8512D6
:1005C0004260C36149680164046270BD8800FFFF36
:1005D0000000014000040140000C00400008004001
:1005E0000004004000400140004401400048014038
:1005F00000180040001C00400020004010B5036AB5
:10060000046A64086400046223F00A03846924F025
:10061000F00444EA021484612EE010B5036A23F06A
:10062000100303628369046A23F4704343EA0233CC
:1006300024F0A004836144EA0114046210BD8268BE
:1006400022F07002114341F007018160704710B53C
:10065000846824F47F442143114341EA03218160EB
:1006600010BD10B501F01F01036A01248C40A343A3
:10067000036202FA01F1036A1943016210BD30B44A
:10068000002513E050F8042BD30744BFA9F1010360
:100690009A18091F042942F8045BFAD213468C0702
:1006A00044BF15809B1CC90748BF1D7050F8041B30
:1006B0000029E7D130BC704718B58DB01022002159
:1006C00009A800F08AF808220021684600F085F8A1
:1006D0001C22002102A800F080F83B4C4FF0804023
:1006E000206000216160A160E1602161A16120467C
:1006F000FFF74AFD08B100F02DF94FF48050099042
:1007000009A92046FFF70CFE08B100F023F92046A6
:10071000FFF761FD08B100F01DF900210091019182
:100720002046694600F028F908B100F013F960216D
:100730000291002203920492069202A92046FFF73A
:1007400077FD08B100F006F9204600F015F80EB06C
:1007500010BD81B00068B0F1804F0BD100211B4863
:100760000091026842F001020260006800F001009E
:100770000090009801B0704710B586B0044614226E
:10078000002101A800F029F82168B1F1804F18D1AB
:100790000020009002220E48016841F00101016032
:1007A0000121006800F001000090009809480191C3
:1007B00002920021039104910121059101A900F009
:1007C00021F906B010BD00001000002040380240A2
:1007D0003038024000000240704710B50446104611
:1007E0000A460146204600F0FBF9204610BD30B411
:1007F0000EE00268436802440830DC0744BFA9F1F8
:100800000104E31852F8045B43F8045B091FF9D1B3
:1008100050F8041B0029ECD130BC704730B589B0CA
:100820000DF104004CA1454C454D202200F00CFA7E
:1008300000F016FA00F036F800F02CFAFFF73CFF53
:1008400000F044FA00213F48FFF7D2FC0A230122BE
:100850006946284600F0C7FAF0B99DF80000313823
:10086000082819D22068384900F0FE00206001AA4B
:100870009DF8000002EB800353F8C02CB1FBF2F0AE
:10088000411EA16140082062206840F00100206004
:100890004FF4FA7000F0A6FB00202062642000F004
:1008A000A1FBD3E780B592B03022002106A8FFF764
:1008B00094FF1422002101A8FFF78FFF0020009071
:1008C0004FF480332148016841F0805101600021DC
:1008D000006800F08050009000981D480091026868
:1008E00042F4804202600122006800F480400090DF
:1008F00006A80099069202214FF480020C910D92F5
:100900000421A8220E910F92022104220793109134
:10091000119200F07BFB02210291002203920F2032
:100920004FF4A051019004914FF48052059205219B
:1009300001A800F0F3FC13B000BD0000140000405B
:10094000500000201000002000BD0105403802408A
:1009500000700040704700000B0200004B020000D6
:1009600093020000BA0200000F03000070030000B1
:10097000DB0300001604000070B500F13C031A7898
:10098000012A01D1022070BD01221A7002245C707C
:1009900005686E68AC680A6826F0700616436E60DB
:1009A00002681148824218BFB2F1804F11D00F483F
:1009B00082421CBF0E4DAA420BD00E4882421CBF81
:1009C0000D4DAA4205D00D4882421CBF0C4DAA42D3
:1009D00004D1486824F080040443946001215970D4
:1009E0000020187070BD00000000014000040040AD
:1009F00000080040000C004000040140004001409D
:100A0000001800402DE9F84F0D46002669496A4A52
:100A10000F23044601202F68B04000EA07088045F4
:100A200040F0C1804FEA460C032707FA0CF76FEA43
:100A3000070E6F68012F18BF022F03D0112F18BFA8
:100A4000122F12D1A768D5F80C900EEA070709FA01
:100A50000CF949EA0707A760676827EA00006F6892
:100A6000C7F30017B74038436060E068AF680EEA2C
:100A7000000007FA0CF73843E060B0006F68022FFF
:100A800018BF122F12D1F70804EB870700F01C09DA
:100A9000D7F820A003FA09FB2AEA0B0AD5F810B010
:100AA0000BFA09F949EA0A09C7F8209027680EEA03
:100AB000070E2F7907F0030707FA0CF747EA0E072E
:100AC00027606F68FF006ED5002700974FEA960CED
:100AD000176847F48047176000F00C00176807F4A8
:100AE0008047009703FA00FE009F344F57F82C70A0
:100AF00027EA0E0E324FBC4208BF002722D0314FEA
:100B0000BC4208BF01271DD02F4FBC4208BF02279F
:100B100018D02E4FBC4208BF032713D02C4FBC4225
:100B200008BF04270ED02B4FBC4208BF052709D0B1
:100B3000294FBC4208BF062704D0284FBC420CBF37
:100B40000727082707FA00F01C4F40EA0E0047F875
:100B50002C006FEA08000F6800EA070C6F68FF03BB
:100B600048BF48EA0C0CC1F800C04F6800EA070C07
:100B70006F68BF0348BF48EA0C0CC1F804C08F6817
:100B800000EA070C6F68FF0248BF48EA0C0CC1F886
:100B900008C0CF6800EA070C6868800248BF48EACE
:100BA0000C0CC1F80CC0761C0F2E7FF633AFBDE8DD
:100BB000F18F0000003C01404438024008380140F9
:100BC000000002400004024000080240000C024005
:100BD000001002400014024000180240001C0240B5
:100BE00062F30F2262F31F42401810F0030308D093
:100BF000C91A1FD3DB0748BF00F8012D28BF20F812
:100C0000022D130030B414461546103928BF20E9D0
:100C10003C00FAD8490728BF20E90C0048BF40F83B
:100C2000042D890028BF20F8022D48BF00F8012DAF
:100C300030BC7047C91818BF00F8012DCB0728BF7A
:100C400000F8012D704700004AB1000011F8013B87
:100C5000521E00F8013B1CBF11F8013BF8E770473A
:100C600080B50B48016841F400710160026842F4EC
:100C700080620260016841F480710160032000F02D
:100C800030FC002000F076FC00F094FC002002BD57
:100C9000003C024081B0002000900B48016841F008
:100CA00080010160026802F0800200920022009937
:100CB0000092036843F001030360006800F0010044
:100CC0000090009801B070473038024080B5244849
:100CD000244901604FF4E13200230C21426083601B
:100CE000C360036141618361C36100F041F818B1E1
:100CF000BDE80140FFF72EBE01BD10B586B0044629
:100D00001422002101A8FFF768FD216815488142DF
:100D100024D1002214480092416941F01001416140
:100D2000416901F010010091009900924FF4C061F7
:100D3000036843F0010303600222006800F0010031
:100D4000009000980948019102920021039103222A
:100D500007210591049201A9FFF754FE06B010BDCA
:100D600050000020001001403038024000000240D6
:100D700038B5040001D1012032BD00F021F808B9D6
:100D800000F022F800F012F800F023F8FFE74161CC
:100D900000F001F832BD2068C16841F40051C16023
:100DA0000020686020216970A97070472420687055
:100DB0002068C16821F40051C160204600F0A0B84D
:100DC00004F1380568787047002129702046FFF744
:100DD00094BF2068016921F4904101612068416954
:100DE00021F02A0170472DE9F843054605F138073F
:100DF0000C46B87820281646994648D1002C14BFD6
:100E0000002E012044D03878012840D001213970CB
:100E1000002078602222BA7000F0E8FB8046AE85A0
:100E2000EE8500203870E88D70B3E88D411EE985AD
:100E30004346A868CDF80090B0F5805F12D100223B
:100E4000202100F029F890B928692968002848680D
:100E500019BF00F0FF0024F8010BC0F3080024F8CC
:100E6000020BE0E70022202100F016F808B1032071
:100E70000EE0286929680028486802D104F8010BAF
:100E8000D1E700F07F00F9E72021B97000E00220EF
:100E9000BDE8F283002280212846FFE72DE9F041DA
:100EA000069C05460E4690461F462868016831405C
:100EB000B1420CBF01200020404517D114F1010FB1
:100EC000F3D024B100F092FBC01B8442EDD228681D
:100ED000C16821F4D07100F00CF805F13800202130
:100EE0004170817000210170032000E00020BDE806
:100EF000F081C16028684169490849004161704733
:100F0000D0B50646642732681169F06821F4405173
:100F1000014311611924D3682C48B168034030693A
:100F20000B4371690343F0690B430343D360516979
:100F3000B06921F4407101435161F36924482549A6
:100F4000B3F5004F1FD18A4218BF824202D100F090
:100F500073FA01E000F068FA0246A4FB020172682D
:100F6000D30F520000F048FB00F036F8FF00323794
:100F70006420B7FBF0F0420002F4F87202EB0112B9
:100F800000F007001DE08A4218BF824202D100F043
:100F900053FA01E000F048FA0246A4FB020172682D
:100FA000930F920000F028FB00F016F83F01323753
:100FB0006420B7FBF0F000F0F00202EB011200F049
:100FC0000F00316880188860D0BD0000F369FFFF12
:100FD00000140140001001406421B0FBF1F107FB57
:100FE0001107704738B5044600F000FB14F1010FFB
:100FF000054602D004480178641800F0F7FA401B57
:10100000A042FAD331BD00BF000000202DE9F84313
:10101000040016D02078DFF8F462C10713D5B06859
:1010200000F00C00042807D0B06800F00C0008287D
:101030003DD1706841023AD53068810303D56068BC
:10104000002800F05E812078B14F810719D5B06883
:1010500010F00C0F07D0B06800F00C0008285BD12E
:101060007068410258D43068810703D5E0680128D0
:1010700040F047813168206921F0F80141EAC00160
:1010800031602178080779D56069A249002868D0C5
:1010900001220A6000F0AAFA0546706F81076DD43C
:1010A00000F0A4FA401B0228F7D903202CE1606865
:1010B000B0F5803F04D1306840F48030306011E0FA
:1010C000B0F5A02F306806D140F480203060316840
:1010D00041F4803105E020F480303060316821F443
:1010E00080213160606858B100F080FA05463068B0
:1010F0008103A8D400F07AFA401B6528F7D3D4E71F
:1011000000F074FA0546306881039CD500F06EFA51
:10111000401B6528F7D3C8E7E068A8B10121396012
:1011200000F064FA05463068810705D400F05EFAE5
:10113000401B0228F7D9B8E73068216920F0F80091
:1011400040EAC10030609CE7386000F04FFA054685
:101150003168880795D500F049FA401B0228F7D975
:10116000A3E7086000F042FA0546706F810705D5D5
:1011700000F03CFA401B0228F7D996E72078410797
:101180005FD5306C0025C1000AD400950125316C73
:1011900041F080513164306C00F080500090009834
:1011A000DFF87481D8F80000C10513D4D8F8000026
:1011B00040F48070C8F8000000F018FA8146D8F8B2
:1011C0000000C10506D400F011FAA0EB09000228C6
:1011D000F5D96AE7A068012805D00528306F06D147
:1011E00040F004003067306F40F0010005E0400837
:1011F00040003067306F20F00400306741F28938DA
:10120000A06860B100F0F2F98146306F810713D415
:1012100000F0ECF9A0EB09004045F6D345E700F0FB
:10122000E5F98146306F810706D500F0DFF9A0EBC4
:1012300009004045F6D338E71DB1306C20F08050EE
:101240003064A06900285ED0B16801F00C01082963
:101250003AD002282AD10020386600F0C7F90546A6
:101260003068810105D500F0C1F9401B0228F7D98B
:101270001BE7E069216A626A0843A16A490840EAFB
:101280008210491E40EA0140E16A40EA0160706054
:101290000120386600F0AAF904463068810132D492
:1012A00000F0A4F9001B0228F7D9FEE600203866FA
:1012B00000F09CF904463068810124D500F096F9CD
:1012C000001B0228F7D9F0E601281AD07068E269FD
:1012D00000F48001914202BF00F03F01226A914276
:1012E0000FD147F6C071626A0140914202BF00F41B
:1012F0004031A26A914202BF00F07060E16A884208
:1013000001D0012000E00020BDE8F2830038024057
:1013100000004742800E4742007000402DE9F04136
:1013200004000F4654D0494E306800F00F00B84218
:1013300002D200F073F84BD12068454D810712D5D9
:10134000400703D5A96841F4E051A960207801075E
:1013500003D5A86840F46040A860A968A06821F09F
:10136000F0010143A9602178C80729D560680128E8
:1013700002D129688A0305E0022818BF032803D197
:1013800029688A0103D423E029688A0720D5A9683F
:10139000890840EA8100A86000F028F98046A86822
:1013A000616800F00C00B0EB810F09D000F01EF96D
:1013B000A0EB080041F289318842F0D303202BE0F2
:1013C000306800F00F00874204D200F027F801D007
:1013D000012021E02078410705D5AA68E06822F4C1
:1013E000E0520243AA602178080706D5A96820695F
:1013F00021F4604141EAC001A96000F035F8AA6813
:101400001449154BC2F30312895CC8401860134895
:10141000006800F0AFF80020BDE8F0813770316857
:1014200001F00F01B94270470B480D4A006813687C
:101430000C49C3F3822206E00748094A0068136892
:101440000849C3F34232895CC8407047003C0240FF
:1014500000380240601700080C000020080000203F
:10146000083802400818000830B5144C606800F0D5
:101470000C00042802D0082802D01DE0104830BD1E
:10148000226820680023410202F03F0204D525684B
:101490000B49C5F3881003E020680A49C0F388109F
:1014A000A1FB000100F0A8F82168C1F30141491C2B
:1014B0004900B0FBF1F030BD024830BD04380240B5
:1014C00000127A000024F4000901020002D424482A
:1014D00081547047234B02F00F021A4402F8041C97
:1014E0007047214B19684FF6FF020002114000F4CB
:1014F000E06008431D4908431860704770B51A4BF7
:101500001C68C4F302230124C3F10705052D2EBF77
:101510000F2504FA05F56D1E1E1D072E34BF00238E
:10152000DB1E2940994004FA03F3BDE870405B1EBE
:101530001A401143C8E710B5401EB0F1807F01D3B7
:10154000012010BD0A4C60600F214FF0FF30FFF703
:10155000BBFF0021A16007202060002010BD00001B
:1015600000E400E018ED00E00CED00E00000FA05FA
:1015700010E000E038B50D4D0D4B2A7804464FF4CD
:101580007A711868B1FBF2F2B0FBF2F0FFF7D3FF0B
:1015900050B9102C08D2002221464FF0FF30FFF73F
:1015A000ADFFAC60002032BD012032BD0000002044
:1015B0000C00002081B00020009000220A48416801
:1015C00041F480414160416801F4804100910099FB
:1015D0000092036843F080530360006800F080507D
:1015E0000090009801B070474038024001484068C0
:1015F000704700BF00000020D3BBD9B1B2F5803FD7
:101600005BD2022A1ED98C46B1FBF2F102FB11C358
:101610001B0443EA1043B3FBF2FC02FB1C3380B211
:1016200040EA0343B3FBF2F002FB103240EA0C4005
:1016300000237047022A05D98446B0FBF2F002FB72
:1016400010C270474AB105D100F0010249085FEAB3
:101650003000704700220023704700F051B80B00A3
:101660000200002100207047F7D3002200237047BA
:10167000904271EB030CF2D370B5B1FA81F4B3FA76
:1016800083F52C1BA340C4F1200532FA05F6334341
:10169000A2405FF00046E64002E05B085FEA3202EB
:1016A000841A71EB030524BF204629467641F4D302
:1016B00002000B003000002170BD70B5B1FA81F45A
:1016C000B2FA82F5C4F120046419B4F12006DAD329
:1016D000B2405FF00044F440002502E052085FEAA7
:1016E0003303C61A71EB020E24BF304671466441C3
:1016F0006D41F3D302000B002000290070BD0000F3
:101700007047000010B5074979441831064C7C44F5
:10171000163404E00A68081D114488470146A142B6
:10172000F8D110BD080000002800000053EFFFFFB3
:10173000800000001000002000000000B3F0FFFF58
:1017400010000000A80000000000002000000000C1
:1017500002494FF0006008607047000008ED00E0AB
:101760000000000000000000010203040607080951
:1017700000F00DF8002801D0FFF7C4FFAFF30080A0
:101780000020AFF30080FFF749F800F002F80120D5
:10179000704700F001B800000746384600F002F834
:1017A000FBE7000080B5AFF30080024A110018206B
:1017B000ABBEFBE7260002007047FEE7FEE7FEE750
:1017C000FEE770477047704700F000B80248416874
:1017D00002788A1842607047000000200148804764
:1017E0000148004751170008FD17000801000000DC
:1017F00000000000100000000024F400AFF300809F
:10180000AFF30080FFF7B4FF000000000102030403
:10181000FFF7FEBFFFF7FEBFFFF7FEBFFFF7FEBFFC
:10182000FFF7FEBFFFF7FEBFFFF7FEBFFFF7FEBFEC
:10183000FFF7FEBFFFF7FEBFFFF7FEBFFFF7FEBFDC
:10184000FFF7FEBFFFF7FEBFFFF7FEBFFFF7FEBFCC
:10185000FFF7FEBFFFF7FEBFFFF7FEBFFFF7FEBFBC
:10186000FFF7FEBFFFF7FEBFFFF7FEBFFFF7FEBFAC
:10187000FFF7FEBFFFF7FEBFFFF7FEBFFFF7FEBF9C
:10188000FFF7FEBFFFF7FEBFFFF7FEBFFFF7FEBF8C
:10189000FFF7FEBFFFF7FEBFFFF7FEBFFFF7FEBF7C
:1018A000FFF7FEBFFFF7FEBFFFF7FEBFFFF7FEBF6C
:1018B000FFF7FEBFFFF7FEBFFFF7FEBFFFF7FEBF5C
:1018C000FFF7FEBFFFF7FEBFFFF7FEBFFFF7FEBF4C
:1018D000FFF7FEBFFFF7FEBFFFF7FEBFFFF7FEBF3C
:1018E000FFF7FEBFFFF7FEBFFFF7FEBFFFF7FEBF2C
:1018F000FFF7FEBFFFF7FEBFFFF7FEBFFFF7FEBF1C
:10190000FFF7FEBFFFF7FEBFFFF7FEBFFFF7FEBF0B
:10191000FFF7FEBFFFF7FEBFFFF7FEBFFFF7FEBFFB
:10192000FFF7FEBFFFF7FEBFFFF7FEBFFFF7FEBFEB
:10193000FFF7FEBFFFF7FEBFFFF7FEBFFFF7FEBFDB
:08194000FFF7FEBFFFF7FEBF39
:04000005080017FDDB
:00000001FF
