S00C0000546573742E7372656378
S113000045C0000061C000005EC000005CC000008C
S11300105AC0000058C0000056C0000054C0000080
S113002052C0000050C000004EC000004CC0000090
S11300304AC0000048C0000046C0000044C00000A0
S113004042C0000040C000003EC000003CC00000B0
S11300503AC0000038C0000036C0000034C00000C0
S113006032C0000030C000002EC000002CC00000D0
S11300702AC0000028C0000026C0000024C00000E0
S113008022C0000020C000001EC0000011241FBEBA
S1130090CFEFD0E1DEBFCDBF12E0A0E0B1E0ECE6EF
S11300A0FBE000E00BBF02C007900D92AC31B1073A
S11300B0D9F722E0ACE1B2E001C01D92AF31B20742
S11300C0E1F7D3D151C59CCF1F920F920FB60F9277
S11300D011248F939F93F89481E080931C028FE006
S11300E097E290931E0280931D021BBA8FB58FBDB9
S11300F078949F918F910F900FBE0F901F90189539
S11301005D9BFECF8CB95D9A08950F931F93CF9397
S11301108C01C0E0F801EC0FF11D8081882319F0F7
S1130120CF5FEEDFF7CFCF911F910F91089588E154
S113013091E0EBDF80911C02882319F010921C02DD
S1130140089510921E0210921D0281E020911D025A
S113015030911E0227303105B0F48BBB880F2FEF8E
S11301603FE39BE0215030409040E1F700C00000A5
S113017020911D0230911E022F5F3F4F30931E02CB
S113018020931D02E3CF90911C029111D7CF1092BE
S11301901E0210921D0220911D0230911E02283071
S11301A0310540F68BBB86952FEF3FE39BE0215052
S11301B030409040E1F700C0000020911D023091D2
S11301C01E022F5F3F4F30931E0220931D02E3CF88
S11301D0CF92DF92EF92FF920F931F93CF93DF930F
S11301E000D000D01F92CDB7DEB785E0E5E6F1E0A0
S11301F08E010F5F1F4FD80101900D928A95E1F790
S113020085E391E082DF81E6E82E81E0F82E80919B
S11302101C02882381F010921C020F900F900F9003
S11302200F900F90DF91CF911F910F91FF90EF905E
S1130230DF90CF900895369A309BFECFC4B0D5B0EE
S113024082E591E062DFDF92CF92FF92EF921F93FB
S11302500F93AFD1C80159DF2FEF8FE39BE02150FB
S113026080409040E1F700C000000F900F900F9085
S11302700F900F900F90CBCF5F9BFECF8CB15F9A06
S11302800895CF92DF92EF92FF92CF93DF938AE6A5
S113029091E03BDFC12C30E8D32E30E7E32EF12C84
S11302A0CAE0D0E080911C02882319F010921C024D
S11302B072C0E2DF8833E1F58FB58A608FBD10929A
S11302C01E0210921D0280911D0290911E02883020
S11302D0910508F058C0880F991FFC01E85FFE4F94
S11302E02081318140E050E0C701B60124D137BDFF
S11302F026BD86B597B5BE010AD170937900609387
S113030078002FEF8FE995E0215080409040E1F78D
S113031000C00000109279001092780080911D02B4
S113032090911E02019690931E0280931D02CBCFE2
S113033090ED980F983050F59FB59A609FBDE82FC7
S1130340F0E0EE0FFF1FE855FF4F2081318140E0C0
S113035050E0C701B601EFD037BD26BD86B597B5CD
S1130360BE01D5D070937900609378002FEF8FE9A8
S113037095E0215080409040E1F700C000001092C9
S11303807900109278008FB58FBD8CCFE82FEF7D68
S1130390E83509F087CF8FB58FBDDF91CF91FF90FE
S11303A0EF90DF90CF9008958DE891E0AEDE8091DC
S11303B01C02882319F010921C0208955DDF8F7DC2
S11303C0863431F510921E0210921D0280911D0296
S11303D090911E028837910550F720911C0221113B
S11303E043C083709927FC01EC5FFE4F808182BB80
S11303F08FEF97E40197F1F700C0000080911D0290
S113040090911E02019690931E0280931D02DECFEE
S1130410823539F510921E0210921D0280911D0240
S113042090911E028837910508F0C1CF20911C02DB
S113043021111AC083709927FC01E050FF4F80817D
S113044082BB8FEF97E40197F1F700C00000809121
S11304501D0290911E02019690931E0280931D022C
S1130460DDCF883509F0A3CF08958FEF8ABB80E8EC
S113047087BB80E284BB80EF81BB8EEF82B982E0D0
S1130480809361001BBA8093620017B887E886B92D
S11304908FB58FBD8EB589618EBD10927A001DBC5B
S11304A01CBC85B3807285BB1BB888E18AB986E021
S11304B0809395001092900083E089B980936A003C
S11304C081E089BF88BF789480ED91E01EDE81EEE3
S11304D091E01BDE8AEE91E018DE83EF91E015DEF9
S11304E08EEF91E012DEC8DE982F9F7D9C3411F4CC
S11304F01EDEEACF933411F46BDEE6CF903511F4AF
S1130500C0DEE2CF933501F790E04EDFDDCFAA1BCA
S1130510BB1B51E107C0AA1FBB1FA617B70710F0EA
S1130520A61BB70B881F991F5A95A9F7809590951C
S1130530BC01CD010895052E97FB16F400940FD04D
S113054057FD05D014D007FC02D046F408C05095DE
S11305504095309521953F4F4F4F5F4F08959095AB
S11305608095709561957F4F8F4F9F4F0895A1E2BD
S11305701A2EAA1BBB1BFD010DC0AA1FBB1FEE1F19
S1130580FF1FA217B307E407F50720F0A21BB30B64
S1130590E40BF50B661F771F881F991F1A9469F7E0
S11305A060957095809590959B01AC01BD01CF013C
S11305B008950F931F93CF93DF93CDB7DEB72E9794
S11305C00FB6F894DEBF0FBECDBF0D891E8986E03D
S11305D08C831A8309838FEF9FE79E838D83AE01FB
S11305E0475E5F4F6F89788DCE01019610D0EF8101
S11305F0F885E00FF11F10822E960FB6F894DEBF37
S11306000FBECDBFDF91CF911F910F9108952F920F
S11306103F924F925F926F927F928F929F92AF928E
S1130620BF92CF92DF92EF92FF920F931F93CF93DB
S1130630DF93CDB7DEB72B970FB6F894DEBF0FBEAE
S1130640CDBF6C017B018A01FC0117821682838174
S113065081FFBFC1CE0101963C01F6019381F701F0
S113066093FD859193FF81917F01882309F4ADC1A6
S1130670853239F493FD859193FF81917F01853211
S113068021F4B60190E0D6D1E8CF912C212C312C65
S1130690FFE1F315D8F08B3279F038F4803279F039
S11306A08332A1F4232D20611DC08D3261F080338B
S11306B069F4232D216016C0832D8260382EE32D2A
S11306C0E4603E2E2AC0F32DF8601DC037FC2DC017
S11306D020ED280F2A3040F08E32B9F436FC75C173
S11306E0232D2064322E19C036FE06C08AE0989E5F
S11306F0200D1124922E11C0EAE02E9E200D11240B
S1130700222EF32DF0623F2E08C08C3621F4832D67
S11307108068382E02C0883641F4F70193FD859134
S113072093FF81917F018111B3CF982F9F7D9554C1
S1130730933028F40C5F1F4F9FE399830DC08336D9
S113074031F0833771F0833509F055C020C0F801CA
S1130750808189830E5F1F4F88248394912C5301D9
S113076012C02801F2E04F0E511CF801A080B180A4
S113077036FE03C0692D70E002C06FEF7FEFC50144
S11307804ED14C018201F32DFF773F2E15C0280175
S113079022E0420E511CF801A080B18036FE03C055
S11307A0692D70E002C06FEF7FEFC5012DD14C01C0
S11307B0F32DF0683F2E820133FC19C0822D90E0A6
S11307C088169906A0F4B60180E290E033D12A9409
S11307D0F5CFF50137FC859137FE81915F01B601B4
S11307E090E028D121102A9421E0821A91088114E2
S11307F0910479F7E1C0843611F0893639F5F801AE
S113080037FE07C060817181828193810C5F1F4F25
S113081008C060817181072E000C880B990B0E5F54
S11308201F4FF32DFF763F2E97FF09C090958095BB
S1130830709561957F4F8F4F9F4FF0683F2E2AE050
S113084030E0A30133D1882E861844C0853731F4B3
S1130850232D2F7EB22E2AE030E025C0932D997FE0
S1130860B92E8F36C1F018F4883579F0AEC08037D0
S113087019F0883721F0A9C0E92FE061BE2EB4FE3B
S11308800DC0FB2DF460BF2E09C034FE0AC0292F11
S11308902660B22E06C028E030E005C020E130E03A
S11308A002C020E132E0F801B7FE07C06081718127
S11308B0828193810C5F1F4F06C06081718180E04B
S11308C090E00E5F1F4FA301F1D0882E8618FB2DF8
S11308D0FF773F2E36FE0DC0232D2E7FA22E8914C6
S11308E058F434FE0BC032FC09C0832D8E7EA82E32
S11308F005C0B82CA32C03C0B82C01C0B92CA4FE8D
S11309000FC0FE01E80DF11D8081803321F49A2D82
S1130910997EA92E09C0A2FE06C0B394B39404C064
S11309208A2D867809F0B394A3FC10C0A0FE06C0FB
S1130930B21480F4280C922C9B180DC0B21458F4F5
S1130940B60180E290E076D0B394F8CFB21418F4F4
S11309502B1802C0982C212CA4FE0FC0B60180E3F2
S113096090E068D0A2FE16C0A1FC03C088E790E026
S113097002C088E590E0B6010CC08A2D867851F05B
S1130980A1FE02C08BE201C080E2A7FC8DE2B601A9
S113099090E050D0891430F4B60180E390E04AD05E
S11309A09A94F8CF8A94F301E80DF11D8081B60181
S11309B090E040D08110F6CF222009F44ECEB6014B
S11309C080E290E037D02A94F7CFF60186819781B0
S11309D002C08FEF9FEF2B960FB6F894DEBF0FBEC9
S11309E0CDBFDF91CF911F910F91FF90EF90DF90DA
S11309F0CF90BF90AF909F908F907F906F905F90BB
S1130A004F903F902F900895FC01059061507040E5
S1130A100110D8F7809590958E0F9F1F0895FC01C3
S1130A206150704001900110D8F7809590958E0F19
S1130A309F1F08950F931F93CF93DF93FB0123818F
S1130A4021FD03C08FEF9FEF2CC022FF16C046810B
S1130A505781248135814217530744F4A081B18121
S1130A609D012F5F3F4F318320838C9326813781F3
S1130A702F5F3F4F3783268314C08B01EC01FB01AA
S1130A800084F185E02D0995892BE1F6D8011696AD
S1130A908D919C911797019617969C938E93169718
S1130AA0CE01DF91CF911F910F910895FA01AA27EA
S1130AB0283051F1203181F1E8946F936E7F6E5F9D
S1130AC07F4F8F4F9F4FAF4FB1E03ED0B4E03CD04B
S1130AD0670F781F891F9A1FA11D680F791F8A1F2E
S1130AE0911DA11D6A0F711D811D911DA11D20D095
S1130AF009F468943F912AE0269F11243019305D4F
S1130B003193DEF6CF010895462F4770405D41933F
S1130B10B3E00FD0C9F7F6CF462F4F70405D4A338C
S1130B2018F0495D31FD4052419302D0A9F7EACF54
S1130B30B4E0A6959795879577956795BA95C9F783
S1130B4000976105710508959B01AC010A2E069476
S1130B505795479537952795BA95C9F7620F731F2F
S10F0B60841F951FA01D0895F894FFCF7A
S1130B6C10204080804020100B024B029302BA02EA
S1130B7C0F037003DB031604506C6179204C45445D
S1130B8C0A457869743A20507265737320427574FF
S1130B9C746F6E0A00506C6179204344530A457893
S1130BAC69743A20507265737320427574746F6E55
S1130BBC0A00434453204144435F446174613A2026
S1130BCC0025640A003030303000506C61792050BC
S1130BDC69616E6F202850726573732030207E20FB
S1130BEC372C20457869743A2058290A00506C61D6
S1130BFC7920537465704D6F74657220285072653A
S1130C0C737320436C6F636B776973653A20462C5E
S1130C1C20436F756E746572636C6F636B77697365
S1130C2C653A20522C20457869743A2058290A00D8
S1130C3C0A2B2B2B2B204D656E75202B2B2B2B0A63
S1130C4C004C203A204C45440A0043203A204344AB
S1130C5C530A0050203A205069616E6F0A005320E9
S1130C6C3A2053746570204D6F746F7228663A4342
S10F0C7C572C20723A434357290A000009
S9030000FC
